:040000000C94AE00AE
:100004000C945E010C9400000C9400000C9400000D
:100014000C9400000C9400000C9400000C9400005C
:100024000C9400000C9400000C9400000C9400004C
:100034000C94DE000C9400000C9421010C9400003C
:100044000C9400000C9400000C9400000C9400002C
:100054001027E80364000A000100001000011000EA
:10006400010024686923002468656C6C6F230A0D01
:100074000024736C6570743F230A0D002462796553
:10008400230A0D00246D6973732075230A0D00245F
:100094006170706C65230A0D00246F72616E676570
:1000A400230A0D00246D616E676F230A0D0024700E
:1000B40065617273230A0D0024677261706573238E
:1000C4000A0D0024636172230A0D002462757323F0
:1000D4000A0D002462696B65230A0D00247472758D
:1000E400636B230A0D00247269636B736861772361
:1000F4000A0D0024696E646961230A0D00245553B6
:10010400230A0D0024554B230A0D002443616E611C
:100114006461230A0D00244765726D616E79230AB8
:100124000D002450686F6E65230A0D002457617416
:100134006368230A0D00245043230A0D0024496EEA
:100144007465726E6574230A0D00244C6170746FBB
:1001540070230A0D00000000F894EE27ECBBF1E0D8
:10016400FBBFEBBFE5BFF8E1F1BDE1BD8DE0A2E06F
:10017400BB27ED938A95E9F780E098E0A0E6ED933C
:100184000197E9F7EAE5F1E085919591009761F02F
:10019400A591B59105901590BF01F00105900D92C0
:1001A4000197E1F7FB01F0CFEFE5EDBFE8E0EEBF2B
:1001B400C0E6D2E00C949301AA93BA93EA93EFB702
:1001C400EA931A930A930BB11CB1E02FEC7111F06E
:1001D4000C940101A72DB0E0A05ABD4F1C93739459
:1001E400E8E0E71511F00C94F80077249394E8E024
:1001F400E91511F00C9401019924689420F80991EF
:100204001991E991EFBFE991B991A99118950A93D0
:10021400992011F00C940F01FBCFE82DF0E0E05A87
:10022400FD4F00818394E8E0E81511F00C941B0164
:100234008824F8949A947894E02F09910895EA9385
:10024400FA93EFB7EA93CC2011F40C943701CA94D3
:10025400EB2DF0E0E859FD4FE081ECB9B394E8E010
:10026400EB1511F00C943701BB24E991EFBFF99120
:10027400E9911895E8E0EC1511F00C944201FACFDD
:10028400F894CC2011F00C944A015D9B01C00FC07E
:10029400EA2DF0E0E859FD4FA881A083A394E8E09B
:1002A400EA1511F00C945701AA24C39402C0E88102
:1002B400ECB97894219608950A921A92FA926A9364
:1002C4007A938A939A93AA93BA93EA93FA93EFB799
:1002D400EA9382990DC0E8ECF0E00E94220882992A
:1002E40007C04394E3E0E41511F00C947A0144242C
:1002F400E991EFBFF991E991B991A9919991899106
:1003040079916991F990199009901895E881E7B964
:10031400369A349901C0FDCF349AE4B1F5B12196EF
:100324000895E0E0EBBBEABBE8BBE7BBE5BBE4BB9D
:10033400E4E0E2BBE0E3E1BBE0E0E3BFE2BFECBF4B
:10034400EFBDEEBDEDBDECBDE7BDE6BDEBBDEABD69
:10035400E9BDE8BDE2BDE5BDE4BDE3BDE9BFE0E85C
:10036400E8B9E0E0E0BFE7B9E4E8E6B9EBB7E06498
:10037400EBBFE0E0E5BFE4BFE0E4EABFE0E0EBB9F7
:10038400E8EDEAB9E6E8E0BDE0E0E0BDE7E6E9B9BA
:100394007894E1E0E41511F00C94D802EA930E94F9
:1003A4008801E0937002F0937102E2E0EA930E9404
:1003B4008801E0937202F0937302E3E0EA930E94EF
:1003C4008801E0937402F0937502E4E0EA930E94DA
:1003D4008801E0937602F0937702E5E0EA930E94C5
:1003E4008801E0937802F0937902E6E0EA930E94B0
:1003F4008801E0937A02F0937B020E942608A733D7
:10040400E1E0BE0710F40C9410020E942608A43503
:10041400E1E0BE0710F00C94100201C013C00E946A
:100424002B08A238E1E0BE0710F40C9422020E94CB
:100434002B08AF39E1E0BE0710F00C94220201C092
:1004440001C001C005C0E0E0EA930E943A03AEC0D7
:100454000E942608A238E1E0BE0710F40C943B0287
:100464000E942608AF39E1E0BE0710F00C943B026D
:1004740001C013C00E942B08AB34E1E0BE0710F4A6
:100484000C944D020E942B08A836E1E0BE0710F040
:100494000C944D0201C001C001C005C0E1E0EA9323
:1004A4000E943A0383C00E942608A030E1E0BE0700
:1004B40010F40C9466020E942608AD31E1E0BE07F8
:1004C40010F00C94660201C013C00E942B08A733DD
:1004D400E1E0BE0710F40C9478020E942B08A435C6
:1004E400E1E0BE0710F00C94780201C001C001C025
:1004F40005C0E2E0EA930E943A0358C00E9426082D
:10050400AB34E1E0BE0710F40C9491020E9426087B
:10051400A836E1E0BE0710F00C94910201C013C0AC
:100524000E942B08A733E1E0BE0710F40C94A30249
:100534000E942B08A435E1E0BE0710F00C94A3023E
:1005440001C001C001C005C0E3E0EA930E943A0380
:100554002DC00E942608A134E1E0BE0710F40C94DB
:10056400BC020E942608AE35E1E0BE0710F00C94F0
:10057400BC0201C013C00E942B08AC33E1E0BE07EB
:1005840010F40C94CE020E942B08A935E1E0BE07BA
:1005940010F00C94CE0201C001C001C005C0E4E01B
:1005A400EA930E943A0302C00E943008E2E0E41594
:1005B40011F00C943803E0E0E91510F00C943803C2
:1005C4000E940901E43211F40C94E902F9CF0E946B
:1005D40009015E2EE1E4E51511F00C94FF02662496
:1005E400E2E06E1610F00C94FD020E9433080E94A3
:1005F40036086394F5CF0E943908E2E4E51511F05A
:100604000C9412036624E3E06E1610F00C941003AD
:100614000E9433080E9436086394F5CF0E9439087B
:10062400E3E4E51511F00C9425036624E4E06E166A
:1006340010F00C9423030E9433080E94360863943C
:10064400F5CF0E943908E4E4E51511F00C94380361
:100654006624E5E06E1610F00C9436030E9433080D
:100664000E9436086394F5CF0E94390892CEFFCFDA
:10067400E881E03011F00C94E2030E943C08A733B7
:10068400E1E0BE0710F40C944D030E94410810F001
:100694000C944D0301C010C00E944708A238E1E049
:1006A400BE0710F40C945C030E944C0810F00C94E8
:1006B4005C0301C001C001C005C0E6E6F0E00E9491
:1006C40052087EC00E94590810F40C946F030E94D3
:1006D4005F0810F00C946F0301C00DC00E94650800
:1006E40010F40C947B030E946B0810F00C947B03B1
:1006F40001C001C001C005C0EBE6F0E00E94520851
:100704005FC00E94710810F40C948E030E94770855
:1007140010F00C948E0301C00DC00E947D0810F4EB
:100724000C949A030E94830810F00C949A0301C05D
:1007340001C001C005C0E5E7F0E00E94520840C0D6
:100744000E94890810F40C94AD030E948F0810F0E5
:100754000C94AD0301C00DC00E947D0810F40C94EC
:10076400B9030E94830810F00C94B90301C001C0BE
:1007740001C005C0E0E8F0E00E94520821C00E94D8
:10078400950810F40C94CC030E949B0810F00C9470
:10079400CC0301C00DC00E94A10810F40C94D8032E
:1007A4000E94A70810F00C94D80301C001C001C036
:1007B40005C0E8E8F0E00E94520802C00E94300838
:1007C400A881A13011F00C9484040E94AD0810F4A7
:1007D4000C94F2030E94410810F00C94F20301C03F
:1007E4000DC00E94B30810F40C94FE030E944C0840
:1007F40010F00C94FE0301C001C001C005C0E3E980
:10080400F0E00E9452087EC00E94590810F40C9433
:1008140011040E945F0810F00C94110401C00DC073
:100824000E94650810F40C941D040E946B0810F0DB
:100834000C941D0401C001C001C005C0EDE9F0E045
:100844000E9452085FC00E94710810F40C94300496
:100854000E94770810F00C94300401C00DC00E946F
:100864007D0810F40C943C040E94830810F00C944E
:100874003C0401C001C001C005C0E8EAF0E00E94E8
:10088400520840C00E94890810F40C944F040E943E
:100894008F0810F00C944F0401C00DC00E947D0815
:1008A40010F40C945B040E94830810F00C945B0415
:1008B40001C001C001C005C0E2EBF0E00E94520893
:1008C40021C00E94950810F40C946E040E949B08A9
:1008D40010F00C946E0401C00DC00E94A10810F425
:1008E4000C947A040E94A70810F00C947A0401C0B6
:1008F40001C001C005C0ECEBF0E00E94520802C048
:100904000E943008A881A23011F00C9426050E94A0
:10091400AD0810F40C9494040E94410810F00C9457
:10092400940401C00DC00E94B30810F40C94A004F8
:100934000E944C0810F00C94A00401C001C001C036
:1009440005C0E7ECF0E00E9452087EC00E945908FE
:1009540010F40C94B3040E945F0810F00C94B304D8
:1009640001C00DC00E94650810F40C94BF040E94DD
:100974006B0810F00C94BF0401C001C001C005C095
:10098400EFECF0E00E9452085FC00E94710810F47E
:100994000C94D2040E94770810F00C94D20401C085
:1009A4000DC00E947D0810F40C94DE040E9483089C
:1009B40010F00C94DE0401C001C001C005C0E7EDD5
:1009C400F0E00E94520840C00E94890810F40C9480
:1009D400F1040E948F0810F00C94F10401C00DC0C2
:1009E4000E947D0810F40C94FD040E94830810F00A
:1009F4000C94FD0401C001C001C005C0E0EEF0E0AC
:100A04000E94520821C00E94950810F40C9410050D
:100A14000E949B0810F00C94100501C00DC00E94A8
:100A2400A10810F40C941C050E94A70810F00C9463
:100A34001C0501C001C001C005C0EAEEF0E00E943F
:100A4400520802C00E943008A881A33011F00C940F
:100A5400C8050E94AD0810F40C9436050E944108A4
:100A640010F00C94360501C00DC00E94B30810F4B8
:100A74000C9442050E944C0810F00C94420501C0ED
:100A840001C001C005C0E7EFF0E00E9452087EC03B
:100A94000E94590810F40C9455050E945F0810F048
:100AA4000C94550501C00DC00E94650810F40C9407
:100AB40061050E946B0810F00C94610501C001C02F
:100AC40001C005C0E1E0F1E00E9452085FC00E944D
:100AD400710810F40C9474050E94770810F00C94BB
:100AE400740501C00DC00E947D0810F40C948005AB
:100AF4000E94830810F00C94800501C001C001C05D
:100B040005C0E8E0F1E00E94520840C00E94890854
:100B140010F40C9493050E948F0810F00C94930524
:100B240001C00DC00E947D0810F40C949F050E9422
:100B3400830810F00C949F0501C001C001C005C0DA
:100B4400EFE0F1E00E94520821C00E94950810F4E1
:100B54000C94B2050E949B0810F00C94B20501C0DD
:100B64000DC00E94A10810F40C94BE050E94A708B1
:100B740010F00C94BE0501C001C001C005C0EAE13B
:100B8400F1E00E94520802C00E943008A881A430FB
:100B940011F00C946A060E94AD0810F40C94D80568
:100BA4000E94410810F00C94D80501C00DC00E94A9
:100BB400B30810F40C94E4050E944C0810F00C9453
:100BC400E40501C001C001C005C0E6E2F1E00E94F5
:100BD40052087EC00E94590810F40C94F7050E9434
:100BE4005F0810F00C94F70501C00DC00E94650861
:100BF40010F40C9403060E946B0810F00C94030686
:100C040001C001C001C005C0E0E3F1E00E94520848
:100C14005FC00E94710810F40C9416060E947708B5
:100C240010F00C94160601C00DC00E947D0810F44B
:100C34000C9422060E94830810F00C94220601C032
:100C440001C001C005C0EAE3F1E00E94520840C0BF
:100C54000E94890810F40C9435060E948F0810F045
:100C64000C94350601C00DC00E947D0810F40C944C
:100C740041060E94830810F00C94410601C001C093
:100C840001C005C0E1E4F1E00E94520821C00E94C5
:100C9400950810F40C9454060E949B0810F00C94D0
:100CA400540601C00DC00E94A10810F40C94600603
:100CB4000E94A70810F00C94600601C001C001C096
:100CC40005C0EEE4F1E00E94520802C00E94300820
:100CD40021960895A881B9810E94FC08309711F4E7
:100CE4000C947D06ED91FD913196FE93EE93319730
:100CF400AA81A08304C0EA81EA930E943C0123965E
:100D0400089526970E94040900E0E889F98931963C
:100D1400E88BF98B3197E4913E2FE03011F40C9479
:100D2400FD07E02FE03011F00C94A106353211F0EC
:100D34000C949E0601E002C00E94B9085BC1E13038
:100D440011F00C94C306353211F00C94AD060E94D8
:100D5400B90800E04FC102E050E010E03D3211F06C
:100D64000C94B60611E046C13B3211F00C94BC065B
:100D74005BE240C1303211F00C94C20650E23AC139
:100D840004C0E23011F00C94D00640E003E03033AC
:100D940011F00C94CF0610682DC104C0E33011F09B
:100DA4000C94FC07303310F40C94DD063A3310F045
:100DB4000C94DD0601C009C0A42FEAE0EA9FF0010B
:100DC4004E2FE32FE0534E0F15C1E32FE33611F0FE
:100DD4000C94F3060E94BF08EC910E94C60809C156
:100DE40004C0E33711F00C9400070E94BF080E946E
:100DF400CC080E94D3080E2F0DC004C0E03711F0B8
:100E04000C9411070E94BF080E94CC080E94DD08C0
:100E14000E2F186012601F7720E047C004C0E4362C
:100E240011F00C94160704C0E93611F00C941C0759
:100E3400146004C0E53711F00C942707E4E5F0E0F2
:100E4400EE83FF8305E010C004C0E83511F00C9474
:100E54002D07186004C0E83711F00C94FB07EEE589
:100E6400F0E0EE83FF8304E012FF19C00E94BF0884
:100E74000E94FC08EA87FB87AA85BB85109714F0BB
:100E84000C9449070E94F808EA87FB875DE250301A
:100E940011F40C944F070F5F01C01B7F06C00E9422
:100EA400BF080E94FC08EA87FB8710FD13C00417E3
:100EB40010F00C946C0717FF08C012FF04C01B7FCE
:100EC400352F015001C030E301C030E20E94B9085F
:100ED4004150EDCF202F11FF1FC0203011F40C948E
:100EE4008D0713FF0AC0EE81FF813196EE83FF83E5
:100EF4003197E4910E94C60807C0AE81BF81ED918D
:100F0400AE83BF830E94C608403011F40C948B0753
:100F140041502150E2CF62C030E3EE81FF8132962E
:100F2400EE83FF8332970E940009E887F987E885FA
:100F3400F985AA85BB85AE17BF0710F40C94AC07DE
:100F44003F5FA885B985EA85FB85EA1BFB0BEA8729
:100F5400FB87EDCF3A3310F40C94B50713FF02C0AE
:100F6400395F01C0395D14FF01C029C0313310F06D
:100F74000C94C307A885B985119711F40C94C30781
:100F840002C010610DC0421710F40C94CC0710FD80
:100F940001C001C01BC030E217FF11C030E3106173
:100FA40012FF0DC01B7F5A93ED85FE85FA93EA93D9
:100FB4000E946C06403011F40C94E10741500E94E9
:100FC400B908403011F40C94E80741502150A88529
:100FD400B985129710F40C94F0079ECF10FF09C046
:100FE400403011F40C94FB074150E0E20E94C60823
:100FF400F7CF00E08ACE0E940B0962960895FF9213
:10100400F82E22971A930A93DE010E94F4088D01A8
:10101400E0E0EA83EB83DE0114960E94F4080E9468
:10102400FC08FA93EA931A930A93FE013696FA930C
:10103400EA930E948306198108812496FF900895FB
:10104400FA93EA930C94E808A0917002B0917102AB
:101054000895A0917202B09173020895E8EEF3E04E
:10106400EFCF949A959AFACF94989598F7CFE8E8A9
:10107400F3E1E6CFA0917602B091770208950E9441
:101084003C08A435E1E0BE070895A0917802B09130
:10109400790208950E944708AF39E1E0BE07089538
:1010A400FA93EA9380E00E9401082296D7CF0E9427
:1010B4003C08A238E1E0BE0708950E943C08AF391D
:1010C400E1E0BE0708950E944708AB34E1E0BE07A3
:1010D40008950E944708A836E1E0BE0708950E94DB
:1010E4003C08A030E1E0BE0708950E943C08AD3101
:1010F400E1E0BE0708950E944708A733E1E0BE0778
:1011040008950E944708A435E1E0BE0708950E94AF
:101114003C08AB34E1E0BE0708950E943C08A836C1
:10112400E1E0BE0708950E943C08A134E1E0BE0757
:1011340008950E943C08AE35E1E0BE0708950E9480
:101144004708AC33E1E0BE0708950E944708A9357B
:10115400E1E0BE0708950E943C08A733E1E0BE0722
:1011640008950E944708A238E1E0BE0708953A9323
:10117400ED85FE85FA93EA93ADCDAE85BF851497D0
:10118400AE87BF8714960895EA93ED85FE85FA939A
:10119400EA93A0CD0E94FC08EE83FF83FA93EA93BE
:1011A4000895A991B991EE27FF276D91662311F057
:1011B4003196FBCF0895AA27BB27E991F9910590B1
:1011C400002011F01196FBCFFD010895E991F991EA
:1011D400309639F080EA9FE00197F1F7A8953197AE
:1011E400C9F708950024AF0DB01D0895E095F0955A
:1011F40031960895ED91FC91119708950590F4911D
:10120400E02D08955A934A933A932A931A930A9392
:1012140008955D814C813B812A811981088108955B
:00000001FF
